:020000040800F2
:10000000480700204D020008FB1500085F14000897
:10001000F915000843040008A319000800000000B7
:10002000000000000000000000000000FF150008B4
:100030004504000800000000FD1500080116000836
:1000400067020008670200086702000867020008EC
:1000500067020008670200086702000867020008DC
:1000600067020008670200086702000867020008CC
:1000700067020008670200086702000867020008BC
:1000800067020008670200086702000867020008AC
:10009000670200086702000867020008670200089C
:1000A000670200086702000867020008670200088C
:1000B000670200086702000867020008670200087C
:1000C000670200086702000867020008670200086C
:1000D000670200086702000867020008670200085C
:1000E000670200086702000867020008670200084C
:1000F000670200086702000867020008670200083C
:10010000670200086702000867020008670200082B
:10011000670200086702000867020008B5160008B9
:10012000670200086702000867020008670200080B
:1001300067020008670200086702000867020008FB
:1001400067020008670200086702000867020008EB
:1001500067020008670200086702000867020008DB
:1001600067020008670200086702000867020008CB
:10017000670200086702000867020008000000002C
:1001800067020008670200086702000867020008AB
:10019000670200086702000867020008670200089B
:1001A00067020008670200086702000800F002F812
:1001B00000F03CF80AA090E8000C82448344AAF1C5
:1001C0000107DA4501D100F031F8AFF2090EBAE8C3
:1001D0000F0013F0010F18BFFB1A43F0010318477B
:1001E00098180000B8180000103A24BF78C878C1E9
:1001F000FAD8520724BF30C830C144BF04680C602D
:10020000704700000023002400250026103A28BF74
:1002100078C1FBD8520728BF30C148BF0B60704778
:100220001FB501F017FC1FBD10B510BD00F0CFF8D1
:100230001146FFF7F5FF01F0C5FB00F0EDF803B440
:10024000FFF7F2FF03BC00F0F5F800000948804713
:1002500009480047FEE7FEE7FEE7FEE7FEE7FEE7A8
:10026000FEE7FEE7FEE7FEE704480549054A064BC0
:1002700070470000A5160008AD01000848010020E5
:1002800048070020480300204803002053EA020CDE
:1002900000F069802DE9F04B4FF00006002B1FBFE6
:1002A000B3FA83F503FA05F424FA05F65E4012BFAB
:1002B0001643B2FA82F502FA05F4C5F120051EBF15
:1002C00022FA05FC44EA0C04203556EA044C4FEAB5
:1002D000144418BF641C4FF000084FF0000990420E
:1002E00071EB030C39D3002919BFB1FA81F701FA78
:1002F00007F6B0FA80F700FA07F6C7F120071EBF2D
:1003000020FA07FC46EA0C062037B6FBF4FCA7EB04
:100310000507103F07F01F0BCBF120060CFA0BFB73
:100320002CFA06F644BFB3460026202FA4BF5E4633
:100330004FF0000B5BEA060C08BF4FF0010B19EB06
:100340000B09ABFB027C48EB0608C01B06FB02CC8A
:100350000BFB03CC71EB0C01C1E70B460246414697
:100360004846BDE8F08B13B54FF000004FF0000198
:10037000AFF30080BDE81C4070474FF0000200B5AD
:10038000134694469646203922BFA0E80C50A0E8B8
:100390000C50B1F12001BFF4F7AF090728BFA0E866
:1003A0000C5048BF0CC05DF804EB890028BF40F832
:1003B000042B08BF704748BF20F8022B11F0804F74
:1003C00018BF00F8012B704770477047704775469B
:1003D00000F02CF8AE4605006946534620F00700B1
:1003E000854618B020B5FFF73FFFBDE820404FF02D
:1003F00000064FF000074FF000084FF0000B21F00F
:100400000701AC46ACE8C009ACE8C009ACE8C009DB
:10041000ACE8C0098D46704710B50446AFF30080C4
:100420002046BDE81040FFF70ABF000000487047B3
:10043000E800002001491820ABBEFEE726000200BC
:100440007047FEE7704772B6FEE7000070B50446DD
:1004500000F028F90546601C02D0044800780444E6
:1004600000F020F9401BA042FAD370BD000000202C
:100470002DE9F84FDFF8F8A10022012403254FF001
:100480000F090AF1040BAAF1040E00BF0B6804FA6D
:1004900002F63340B34270D10F7907F00307012F02
:1004A00001D0022F16D187684FEA420805FA08FCEE
:1004B00027EA0C07D1F80CC00CFA08FC4CEA070C30
:1004C000C0F808C04768B7430E79C6F300169640D7
:1004D0003E4346600E79F643B6070AD0C7684FEA36
:1004E000420C05FA0CF6B7438E6806FA0CF63E434A
:1004F000C6600E7906F00306022E10D1D60800EB76
:100500008608D8F8206057074FEAD76C09FA0CF72D
:10051000BE430F6907FA0CF73743C8F82070066826
:100520004FEA420C05FA0CF7BE430F7907F00307B8
:1005300007FA0CF7374307604E6816F4403F1CD0AB
:100540004C4E376847F480473760366822F003071F
:1005500006F480460096484E07EB060CDCF8086867
:1005600097073F0F09FA07F826EA0806DFF80C811B
:10057000404503D14FF0000841E072E0DFF8008110
:10058000404502D14FF0010839E0DFF8F8804045DE
:1005900002D14FF0020832E0DFF8EC80404502D192
:1005A0004FF003082BE0DFF8E480404502D14FF024
:1005B000040824E0DFF8D880404502D14FF0050858
:1005C0001DE0DFF8D080404502D14FF0060816E06C
:1005D000DFF8C480404502D14FF007080FE0DFF894
:1005E000BC80404502D14FF0080808E0DFF8B08039
:1005F000404502D14FF0090801E04FF00A0808FA1F
:1006000007F848EA0608CCF80888DAF80060574688
:10061000D1F804C09E435FEACC2C00D51E433E6057
:10062000DBF800605F46D1F804C09E435FEA8C2C83
:1006300000D51E433E60DEF800607746D1F804C066
:100640009E435FEA8C3C00D51E433E60084F083F46
:100650003E68D1F804C09E435FEACC3C00D51E43FF
:100660003E60521C102AFFF411AFBDE8F88F000065
:10067000083C014044380240003001400000024084
:100680000004024000080240000C0240001002403A
:100690000014024000180240001C024000200240EA
:1006A00000240240014880687047000000000020DC
:1006B0000248816802781144816070470000002080
:1006C0000B4810B5016841F400710160016841F404
:1006D00080610160016841F480710160032000F0D5
:1006E0009BF80F2000F006F800F050F8002010BD35
:1006F000003C024030B505461F4887B00024016821
:1007000041F020010160006806A900F0200000907F
:1007100001A800F065F90498A8B100F081F9400043
:100720001649174AB0FBF1F11648491E026040F223
:10073000E732C0E90324C0E90114846100F0B2FB90
:10074000040003D015E000F06BF9E9E70D4800F074
:10075000F7FB04000DD1372000F030F8102D07D240
:1007600000222946372000F037F80748056000E0EE
:10077000012407B0204630BD4038024040420F00FF
:1007800000140040A0000020040000200A4808B522
:10079000016841F480410160006800F480400090ED
:1007A0000548001F016841F080510160006800F0B9
:1007B0008050009008BD000044380240002809DB4A
:1007C00000F01F02012191404009800000F1E0206B
:1007D000C0F8001170470000F0B40E4B1B680C46C7
:1007E000C3F30223C3F10705042D00D90425191D05
:1007F000072901D2002300E0DB1E012606FA05F1DD
:10080000491E214099409E40761E16403143F0BC5F
:1008100001F0C8B80CED00E0064900F007020868D6
:100820004FF6FF03184040EA0220034A10430860D5
:10083000704700000CED00E00000FA052DE9F843D8
:100840001748016841F0805101600068154F00F0C1
:100850008050012600903E64FFF724FF05464FF4C8
:100860007A78114C05E000BFFFF71CFF401B4045A4
:100870000DD86068C003F7D57E64FFF713FF054607
:10088000464607E0FFF70EFF401BB04202D90320A7
:10089000BDE8F88360688003F4D50020F8E7000025
:1008A0004038024000000E42007000402DE9F04741
:1008B0000E46050065D0DFF81481D8F80000F7B2C5
:1008C00000F00F00B04207D288F80070D8F800009E
:1008D00000F00F00B04254D128683D4C810712D57A
:1008E000400703D5206840F4E050206028780007D6
:1008F00003D5206840F4604020602068A96820F09B
:10090000F000084320602878C0072DD0304968687F
:100910000839012812D0022813D0032811D0096801
:10092000890700292DDA216821F0030101432160A4
:10093000FFF7B8FE814641F2883A0EE00968890364
:10094000EFE709688901ECE7FFF7ACFEA0EB0901CE
:10095000514502D90320BDE8F0872068696800F09E
:100960000C00B0EB810FEFD1D8F80010404601F039
:100970000F01B14207D90770006800F00F00B042C4
:1009800001D00120E7E72878400705D52068E9680D
:1009900020F4E050084320602878000706D520683E
:1009A000296920F4604040EAC100206000F048F866
:1009B0002168084AC1F30311515CC8400649086028
:1009C00006480068FFF796FE0020C4E7003C02409E
:1009D000083802405E1A00080C00002004000020C5
:1009E0000F2202600C4A136803F00303436013688C
:1009F00003F0F0038360136803F4E053C3601268EC
:100A00004FF4E05303EAD20202610448006800F0A8
:100A10000F0008607047000008380240003C0240A8
:100A20000448054900680968044AC1F38221515C01
:100A3000C84070470C000020083802406E1A0008B9
:100A4000154810B5006810F00C02144813D0144972
:100A5000042A0FD0082A0ED10F4C241F22682368C5
:100A600002F03F025B0207D52068C0F38810A0FBAC
:100A7000010106E0084610BD2168C1F38811A1FB01
:100A800000010023FFF702FC2168C1F30141491C6A
:100A90004900B0FBF1F010BD083802400024F4001A
:100AA00040787D012DE9F84F04006ED02078DFF802
:100AB0004C93C007A9F104054AD009F1040001686C
:100AC000C1F38101012908D00068C0F38100022828
:100AD0000AD1D9F80000400206D52868800337D52E
:100AE00060680028E1D033E06068B0F5803F10D046
:100AF000B0F5A02F286810D020F480302860286836
:100B000020F4802028606068A8B1FFF7CBFD06467E
:100B10000DE0286840F48030F4E740F4802028603D
:100B2000F7E700BFFFF7BEFD801B642873D8286875
:100B30008003F7D50CE0FFF7B5FD064605E000BFE2
:100B4000FFF7B0FD801B6428F0D828688003F7D435
:100B50002078DFF8AC8280074FF0000A3ED5A74826
:100B6000001D016811F00C0F08D00068C0F381006F
:100B700002280BD1D9F80000400207D4286880076A
:100B800016D5E068012800D112E033E1E068B8B181
:100B90000120C8F80000FFF785FD064605E000BF0C
:100BA000FFF780FD801B0228C0D828688007F7D592
:100BB0002868216920F0F80040EAC10028600DE0B3
:100BC000C8F800A0FFF76EFD064604E0FFF76AFDD7
:100BD000801B02281FD828688007F7D420780007D8
:100BE00022D5864F87486169703771B10121016054
:100BF000FFF758FD064604E0FFF754FD801B02286E
:100C000009D838688007F7D50EE0C0F800A0FFF7D4
:100C100049FD064605E082E0FFF744FD801B0228FF
:100C20007DD838688007F7D42078400768D5DFF88A
:100C3000CCB100270BF13C0BDBF80000C0000BD45B
:100C4000DBF8001041F08051CBF80010DBF8000019
:100C5000012700F0805000906B4E3068C00510D422
:100C6000306840F480703060FFF71CFD009005E0B4
:100C7000FFF718FD0099401A022850D83068C005C7
:100C8000F6D55E4EA0686C3601280FD00528306876
:100C900010D020F001003060306820F00400306097
:100CA000A068B8B1FFF7FEFC00900FE0306840F09C
:100CB0000100F4E740F004003060F7E7FFF7F2FCD2
:100CC0000099411A41F28830814266D83068800725
:100CD000F4D50EE0FFF7E6FC009007E0FFF7E2FC3A
:100CE0000099411A41F28830814256D83068800715
:100CF000F4D42FB1DBF8001021F08051CBF80010B4
:100D0000A069C8B33D49091D0968C1F381010229E1
:100D10004AD00228504607D0C8F8600000E03CE006
:100D2000FFF7C0FC04463BE04746C8F86000FFF709
:100D3000B9FC064605E000BFFFF7B4FC801B0228A3
:100D40002BD828688001F7D4D4E907010843A16AA9
:100D50002E4A490802EB0141626A41EA82110843C6
:100D600094F82C1040EA0161C9F80010012038669F
:100D7000FFF798FC044606E03EE000BFFFF792FC58
:100D8000001B022809D828688001F7D534E000BF8D
:100D9000FFF788FC001B022802D90320BDE8F88F6A
:100DA00028688001F4D427E00128F7D0D9F80000A2
:100DB000E26900F4800191421CD1226A00F03F01F7
:100DC000914217D147F6C071626A0140B1EB821FB0
:100DD00010D1A26A4FF0FF3300F4403103EB52020E
:100DE000B1EB024F06D194F82C1000F07060B0EB1C
:100DF000016F01D00120D1E70020CFE70438024085
:100E000000004742800E4742007000400000FFFF94
:100E10007047704770B590F83C20012A32D0012409
:100E200080F83C40022280F83D2003685A689D68A3
:100E300022F070060A6832435A60134B02689A42E5
:100E400014D0B2F1804F11D0104B9A420ED0104BFB
:100E50009A420BD00F4B9A4208D00F4B9A4205D0C2
:100E60000E4B9A4202D00E4B9A4204D1496825F0AB
:100E700080031943916080F83D40002180F83C10C8
:100E8000084670BD022070BD000001400004004013
:100E900000080040000C00400004014000400140F8
:100EA0000018004010B5040003D094F83D0010B1C4
:100EB00007E0012010BD002084F83C00204600F02F
:100EC0001FF8022084F83D00211D206800F0F8FB87
:100ED000012084F8460084F83E0084F83F0084F83E
:100EE000400084F8410084F8420084F8430084F80C
:100EF000440084F8450084F83D00002010BD000047
:100F000008B50C4A01680C48914207D1016841F0CC
:100F100002010160006800F0020009E0074A914206
:100F200007D1016841F008010160006800F0080085
:100F3000009008BD0004004040380240000C004012
:100F400090F83D10012901D001207047022180F85E
:100F50003D100168CA6842F00102CA600068114988
:100F6000884214D0B0F1804F11D00F4988420ED082
:100F70000E4988420BD00E49884208D00D4988425C
:100F800005D00D49884202D00C49884204D18168BD
:100F900001F00701062903D0016841F00101016059
:100FA000002070470000014000040040000800409D
:100FB000000C0040000401400040014000180040C7
:100FC00070B5044690F83C000025012817D0012692
:100FD00084F83C60022084F83D002068826822F09A
:100FE000770222F47F4282600868502838D00DDCF6
:100FF00020284FD005DC90B3102811D14AE0022000
:1010000070BD302846D040280AD13BE060282FD060
:1010100070280DD0B0F5805F03D0B0F5005F12D01E
:10102000012584F83D60002084F83C00284670BD0E
:10103000CB68D1E90121206800F0BBFB2068816802
:1010400041F0770109E0CB68D1E90121206800F087
:10105000B0FB2068816841F480418160E1E719E0DC
:10106000CA684968206800F079FC5021206806E0D1
:10107000CA684968206800F082FC6021206800F09E
:10108000A2FBCEE7CA684968206800F067FC4021EF
:101090002068F4E7226801461046F0E770472DE922
:1010A000F04104460068C66805694FF00007A907CB
:1010B00013D5B10711D5F91E0161012020772068F1
:1010C00080698007204602D0FFF7E8FF04E000F0C7
:1010D000C1F8204600F053F92777680716D5700746
:1010E00014D521686FF00400086102202077206881
:1010F000806910F4407F204602D0FFF7CFFF04E064
:1011000000F0A8F8204600F03AF92777280715D50F
:10111000300713D521686FF008000861042020779C
:101120002068C0698007204602D0FFF7B7FF04E0BF
:1011300000F090F8204600F022F92777E80616D54F
:10114000F00614D521686FF01000086108202077A0
:101150002068C06910F4407F204602D0FFF79EFF50
:1011600004E000F077F8204600F009F92777E80757
:1011700008D0F00706D021686FF001000861204612
:1011800000F062F9280608D5300606D521686FF010
:10119000800008612046FFF73BFE680608D5700610
:1011A00006D521686FF040000861204600F056F92E
:1011B000A8060AD5B00608D521686FF0200008619E
:1011C0002046BDE8F041FFF724BEBDE8F0810000F5
:1011D00010B586B0044614216846FFF7CEF82368A0
:1011E000174C002117480222A34210D1036843F094
:1011F00001030360006800F00100059040200090AA
:10120000CDE90121CDE9031269460F4813E00F4CE7
:10121000A34212D1036843F080030360006800F02A
:10122000800005904FF4E0500090CDE90121CDE918
:10123000031269460648FFF71BF906B010BD00000F
:10124000000400403038024000000240000C004022
:10125000001C0240704770B5044690F83C00002620
:101260000D4601280FD0012084F83C006AB1042A01
:101270001DD0082A2FD00C2A3FD00126002084F848
:101280003C00304670BD022070BD206800F0A4FA1A
:101290002068816941F0080181612068816921F03D
:1012A00004018161206881692A69114311E0206885
:1012B00000F0C2FA2068816941F400618161206810
:1012C000816921F480618161206881692A6941EA2C
:1012D00002218161D2E7206800F0E4FA2068C16948
:1012E00041F00801C1612068C16921F00401C161B8
:1012F0002068C1692A69114311E0206800F006FBEB
:101300002068C16941F40061C1612068C16921F4AC
:101310008061C1612068C1692A6941EA0221C16115
:10132000ACE710B5040003D094F83D0010B107E01D
:10133000012010BD002084F83C00204600F01EF87B
:10134000022084F83D00211D206800F0B9F9012039
:1013500084F8460084F83E0084F83F0084F840009A
:1013600084F8410084F8420084F8430084F8440083
:1013700084F8450084F83D00002010BD7047704798
:1013800010B50446022249B104290ED0082913D011
:1013900094F84100012816D0012010BD94F83E00B9
:1013A0000128F9D184F83E200FE094F83F0001288D
:1013B000F2D184F83F2008E094F840000128EBD1F6
:1013C00084F8402001E084F841200122206800F0E8
:1013D000E3F916492068164A884201D0904203D1A9
:1013E000436C43F4004343642068884213D0B0F157
:1013F000804F10D00F4988420DD00F4988420AD043
:101400000E49884207D0904205D00D49884202D04B
:101410000C49884204D1816801F00701062903D0F4
:10142000016841F001010160002010BD0000014091
:10143000000401400004004000080040000C00408F
:10144000004001400018004000680349884201D173
:10145000FFF72EB970470000001400407047FEE708
:101460000D4808B5016841F080010160016801F094
:1014700080010091016841F001010160016801F003
:1014800001010091016841F002010160006800F073
:101490000200009008BD00003038024010B58EB048
:1014A00000240794089409940A940B941C2168461C
:1014B0000C94FEF762FF1F481D4901604721C0E9F7
:1014C000011440F2F311C0E9031480218161FFF798
:1014D000E9FC08B1FEF7B7FF4FF48050079007A969
:1014E0001448FFF76DFD08B1FEF7ADFF1148FFF797
:1014F00018FF08B1FEF7A7FF0B940BA90D480C9439
:10150000FFF788FC08B1FEF79EFF6020CDE90004DC
:10151000022002900022694604940648FFF79BFED1
:1015200008B1FEF790FF0348FFF752FE0EB010BD62
:10153000000400401000002010B58EB00024079475
:10154000089409940A940B941C2168460C94FEF7A5
:1015500014FF2848264901604721C0E9011440F2E0
:10156000F311C0E9031480218161FFF79BFC08B1EE
:10157000FEF769FF4FF48050079007A91D48FFF759
:101580001FFD08B1FEF75FFF1A48FFF7CAFE08B15A
:10159000FEF759FF0B940BA916480C94FFF73AFC81
:1015A00008B1FEF750FF6020CDE900040220029050
:1015B0000022694604940F48FFF74DFE08B1FEF77C
:1015C00042FF042269460B480294FFF744FE08B12B
:1015D000FEF739FF082269460648FFF73CFE08B1CE
:1015E000FEF731FF0348FFF7F3FD0EB010BD00001A
:1015F000000C004058000020FEE7FEE770477047EF
:101600007047000030B593B030216846FEF7B5FE54
:1016100014210CA8FEF7B1FE20480025016841F016
:1016200080510160006800F0805011901C480168F2
:1016300041F4404101600068022400F440401190F0
:101640000120039010200490009406940820CDE916
:101650000750B420CDE9090404200B906846FFF739
:1016600021FA08B172B6FEE7FFF7E8F808B172B6E2
:10167000FEE70CA90F2081E831004FF4A0500F9035
:101680004FF48050109005210CA8FFF70FF90028A7
:1016900001D072B6FEE713B030BD00004038024002
:1016A000007000400248016841F470010160704719
:1016B00088ED00E00148FFF7F2BC0000A000002028
:1016C000F0B50268294C2A4D2A4E2B4F2B4B4FF078
:1016D000804CA04209D0604507D0A84205D0B04256
:1016E00003D0B84201D0984204D122F0700E4A686B
:1016F00042EA0E02A0421BD0604519D0A84217D082
:10170000B04215D0B84213D0984211D01C4DA84217
:101710000ED01C4DA8420BD01B4DA84208D01B4D2B
:10172000A84205D01A4DA84202D01A4DA84203D1B2
:1017300022F44075CA682A434D6922F080022A4388
:1017400002608A68C2620A688262A04201D098423E
:1017500001D109690163012141610169C90703D010
:10176000016921F001010161F0BD000000000140AC
:101770000004004000080040000C0040000401404C
:101780000040014000440140004801400018004072
:10179000001C00400020004010B501F01F03012193
:1017A000046A99408C430462016A9A4011430162C1
:1017B00010BD10B5846842EA032224F47F440A4332
:1017C0002243826010BD826822F070020A4342F018
:1017D0000701816070470000F0B5036A026A22F0D9
:1017E0000102026242688469124E24F073050C689B
:1017F0002C4323F002058B682B430D4DA84201D0EA
:10180000B04205D123F00807CB683B4323F0040323
:10181000A84201D0B04205D14D6922F4407215436F
:101820008A692A4342608461496841630362F0BD6A
:101830000000014000040140F0B5026A036A23F091
:1018400010030362436884690D6824F4E64444EAA3
:1018500005248D6822F0200242EA05120F4D104E39
:10186000A84201D0B04206D1CF6822F0800242EAFD
:10187000071222F04002A84201D0B04207D14D69C0
:1018800023F4406343EA85038D6943EA850343609B
:101890008461496881630262F0BD0000000001407C
:1018A00000040140F0B5026A036A23F48073036206
:1018B0004368C46922F4007224F073050C68124E68
:1018C0002C438D6842EA05220E4DA84201D0B04259
:1018D00006D1CF6822F4006242EA072222F4806235
:1018E000A84201D0B04207D14D6923F4405343EAE6
:1018F00005138D6943EA05134360C4614968C163F8
:101900000262F0BD000001400004014030B5046AED
:10191000026A22F4805202624268C3690D6823F4AD
:10192000E64343EA05238D6824F4005444EA053471
:10193000084DA84202D0084DA84204D14D6922F4B6
:10194000804242EA85124260C361496801640462D0
:1019500030BD0000000001400004014010B5036AE2
:10196000046A24F001040462846924F0F00444EA67
:10197000021423F00A020A438461026210BD10B50A
:10198000036A046A24F010040462846923F0A0034B
:1019900024F4704444EA023243EA01118261016294
:1019A00010BDFEE70907090E002804DB00F1E02066
:1019B00080F80014704700F00F0000F1E02080F87C
:1019C000141D70470024FEF77BFEFFF71BFEFFF798
:1019D00047FDFFF763FDFFF7AFFD00211C48FFF750
:1019E000CFFC04211A48FFF7CBFC08211848FFF769
:1019F000C7FC174D4FF4FA76641C2868A4B2446300
:101A00000120FEF723FD286884630120FEF71EFDF8
:101A10002868C4630120FEF719FDB442ECD310E03E
:101A20002868641EA4B244630120FEF70FFD2868F5
:101A300084630120FEF70AFD2868C4630120FEF7D5
:101A400005FD002CECD1C820FEF700FDD4E7000016
:101A5000580000204FF04070E1EE100A704700007F
:101A6000000000000000010203040607080900004E
:101A70000000010203040000981A00080000002082
:101A800010000000E8010008A81A0008100000205B
:101A900038070000040200080100000010000000E8
:081AA000000000000024F40026
:04000005080001AD41
:00000001FF
